{
    "_format": "hh-sol-artifact-1",
    "contractName": "MyEpicNFT",
    "sourceName": "contracts/MyEpicNFT.sol",
    "abi": [
        {
            "inputs": [],
            "stateMutability": "nonpayable",
            "type": "constructor"
        },
        {
            "anonymous": false,
            "inputs": [
                {
                    "indexed": true,
                    "internalType": "address",
                    "name": "owner",
                    "type": "address"
                },
                {
                    "indexed": true,
                    "internalType": "address",
                    "name": "approved",
                    "type": "address"
                },
                {
                    "indexed": true,
                    "internalType": "uint256",
                    "name": "tokenId",
                    "type": "uint256"
                }
            ],
            "name": "Approval",
            "type": "event"
        },
        {
            "anonymous": false,
            "inputs": [
                {
                    "indexed": true,
                    "internalType": "address",
                    "name": "owner",
                    "type": "address"
                },
                {
                    "indexed": true,
                    "internalType": "address",
                    "name": "operator",
                    "type": "address"
                },
                {
                    "indexed": false,
                    "internalType": "bool",
                    "name": "approved",
                    "type": "bool"
                }
            ],
            "name": "ApprovalForAll",
            "type": "event"
        },
        {
            "anonymous": false,
            "inputs": [
                {
                    "indexed": true,
                    "internalType": "address",
                    "name": "from",
                    "type": "address"
                },
                {
                    "indexed": true,
                    "internalType": "address",
                    "name": "to",
                    "type": "address"
                },
                {
                    "indexed": true,
                    "internalType": "uint256",
                    "name": "tokenId",
                    "type": "uint256"
                }
            ],
            "name": "Transfer",
            "type": "event"
        },
        {
            "inputs": [
                {
                    "internalType": "address",
                    "name": "to",
                    "type": "address"
                },
                {
                    "internalType": "uint256",
                    "name": "tokenId",
                    "type": "uint256"
                }
            ],
            "name": "approve",
            "outputs": [],
            "stateMutability": "nonpayable",
            "type": "function"
        },
        {
            "inputs": [
                {
                    "internalType": "address",
                    "name": "owner",
                    "type": "address"
                }
            ],
            "name": "balanceOf",
            "outputs": [
                {
                    "internalType": "uint256",
                    "name": "",
                    "type": "uint256"
                }
            ],
            "stateMutability": "view",
            "type": "function"
        },
        {
            "inputs": [
                {
                    "internalType": "uint256",
                    "name": "tokenId",
                    "type": "uint256"
                }
            ],
            "name": "getApproved",
            "outputs": [
                {
                    "internalType": "address",
                    "name": "",
                    "type": "address"
                }
            ],
            "stateMutability": "view",
            "type": "function"
        },
        {
            "inputs": [
                {
                    "internalType": "address",
                    "name": "owner",
                    "type": "address"
                },
                {
                    "internalType": "address",
                    "name": "operator",
                    "type": "address"
                }
            ],
            "name": "isApprovedForAll",
            "outputs": [
                {
                    "internalType": "bool",
                    "name": "",
                    "type": "bool"
                }
            ],
            "stateMutability": "view",
            "type": "function"
        },
        {
            "inputs": [],
            "name": "makeAnEpicNFT",
            "outputs": [],
            "stateMutability": "nonpayable",
            "type": "function"
        },
        {
            "inputs": [],
            "name": "name",
            "outputs": [
                {
                    "internalType": "string",
                    "name": "",
                    "type": "string"
                }
            ],
            "stateMutability": "view",
            "type": "function"
        },
        {
            "inputs": [
                {
                    "internalType": "uint256",
                    "name": "tokenId",
                    "type": "uint256"
                }
            ],
            "name": "ownerOf",
            "outputs": [
                {
                    "internalType": "address",
                    "name": "",
                    "type": "address"
                }
            ],
            "stateMutability": "view",
            "type": "function"
        },
        {
            "inputs": [
                {
                    "internalType": "uint256",
                    "name": "tokenId",
                    "type": "uint256"
                }
            ],
            "name": "pickRandomColor",
            "outputs": [
                {
                    "internalType": "string",
                    "name": "",
                    "type": "string"
                }
            ],
            "stateMutability": "view",
            "type": "function"
        },
        {
            "inputs": [
                {
                    "internalType": "uint256",
                    "name": "tokenId",
                    "type": "uint256"
                }
            ],
            "name": "pickRandomFirstWord",
            "outputs": [
                {
                    "internalType": "string",
                    "name": "",
                    "type": "string"
                }
            ],
            "stateMutability": "view",
            "type": "function"
        },
        {
            "inputs": [
                {
                    "internalType": "uint256",
                    "name": "tokenId",
                    "type": "uint256"
                }
            ],
            "name": "pickRandomSecondWord",
            "outputs": [
                {
                    "internalType": "string",
                    "name": "",
                    "type": "string"
                }
            ],
            "stateMutability": "view",
            "type": "function"
        },
        {
            "inputs": [
                {
                    "internalType": "uint256",
                    "name": "tokenId",
                    "type": "uint256"
                }
            ],
            "name": "pickRandomThirdWord",
            "outputs": [
                {
                    "internalType": "string",
                    "name": "",
                    "type": "string"
                }
            ],
            "stateMutability": "view",
            "type": "function"
        },
        {
            "inputs": [
                {
                    "internalType": "address",
                    "name": "from",
                    "type": "address"
                },
                {
                    "internalType": "address",
                    "name": "to",
                    "type": "address"
                },
                {
                    "internalType": "uint256",
                    "name": "tokenId",
                    "type": "uint256"
                }
            ],
            "name": "safeTransferFrom",
            "outputs": [],
            "stateMutability": "nonpayable",
            "type": "function"
        },
        {
            "inputs": [
                {
                    "internalType": "address",
                    "name": "from",
                    "type": "address"
                },
                {
                    "internalType": "address",
                    "name": "to",
                    "type": "address"
                },
                {
                    "internalType": "uint256",
                    "name": "tokenId",
                    "type": "uint256"
                },
                {
                    "internalType": "bytes",
                    "name": "data",
                    "type": "bytes"
                }
            ],
            "name": "safeTransferFrom",
            "outputs": [],
            "stateMutability": "nonpayable",
            "type": "function"
        },
        {
            "inputs": [
                {
                    "internalType": "address",
                    "name": "operator",
                    "type": "address"
                },
                {
                    "internalType": "bool",
                    "name": "approved",
                    "type": "bool"
                }
            ],
            "name": "setApprovalForAll",
            "outputs": [],
            "stateMutability": "nonpayable",
            "type": "function"
        },
        {
            "inputs": [
                {
                    "internalType": "bytes4",
                    "name": "interfaceId",
                    "type": "bytes4"
                }
            ],
            "name": "supportsInterface",
            "outputs": [
                {
                    "internalType": "bool",
                    "name": "",
                    "type": "bool"
                }
            ],
            "stateMutability": "view",
            "type": "function"
        },
        {
            "inputs": [],
            "name": "symbol",
            "outputs": [
                {
                    "internalType": "string",
                    "name": "",
                    "type": "string"
                }
            ],
            "stateMutability": "view",
            "type": "function"
        },
        {
            "inputs": [
                {
                    "internalType": "uint256",
                    "name": "tokenId",
                    "type": "uint256"
                }
            ],
            "name": "tokenURI",
            "outputs": [
                {
                    "internalType": "string",
                    "name": "",
                    "type": "string"
                }
            ],
            "stateMutability": "view",
            "type": "function"
        },
        {
            "inputs": [
                {
                    "internalType": "address",
                    "name": "from",
                    "type": "address"
                },
                {
                    "internalType": "address",
                    "name": "to",
                    "type": "address"
                },
                {
                    "internalType": "uint256",
                    "name": "tokenId",
                    "type": "uint256"
                }
            ],
            "name": "transferFrom",
            "outputs": [],
            "stateMutability": "nonpayable",
            "type": "function"
        }
    ],
    "bytecode": "0x60806040526040518060a00160405280607881526020016200489560789139600890816200002e919062000b30565b5060405180610100016040528060ca81526020016200490d60ca9139600990816200005a919062000b30565b5060405180606001604052806040518060400160405280600681526020017f324444324646000000000000000000000000000000000000000000000000000081525081526020016040518060400160405280600681526020017f343545373733000000000000000000000000000000000000000000000000000081525081526020016040518060400160405280600681526020017f4646444430300000000000000000000000000000000000000000000000000000815250815250600a9060036200012792919062000709565b5060405180602001604052806040518060400160405280600581526020017f746f646179000000000000000000000000000000000000000000000000000000815250815250600b9060016200017e92919062000769565b5060405180602001604052806040518060400160405280600581526020017f4977696c6c000000000000000000000000000000000000000000000000000000815250815250600c906001620001d592919062000769565b50604051806101e001604052806040518060400160405280600481526020017f466172740000000000000000000000000000000000000000000000000000000081525081526020016040518060400160405280600381526020017f506f6f000000000000000000000000000000000000000000000000000000000081525081526020016040518060400160405280600381526020017f506565000000000000000000000000000000000000000000000000000000000081525081526020016040518060400160405280600881526020017f4d6564697461746500000000000000000000000000000000000000000000000081525081526020016040518060400160405280600881526020017f536574476f616c7300000000000000000000000000000000000000000000000081525081526020016040518060400160405280600a81526020017f436172654d7973656c660000000000000000000000000000000000000000000081525081526020016040518060400160405280600a81526020017f4265477261746566756c0000000000000000000000000000000000000000000081525081526020016040518060400160405280600781526020017f426547726561740000000000000000000000000000000000000000000000000081525081526020016040518060400160405280600581526020017f4c6561726e00000000000000000000000000000000000000000000000000000081525081526020016040518060400160405280600881526020017f5468616e6b4d6f6d00000000000000000000000000000000000000000000000081525081526020016040518060400160405280600881526020017f5468616e6b44616400000000000000000000000000000000000000000000000081525081526020016040518060400160405280600881526020017f457865726369736500000000000000000000000000000000000000000000000081525081526020016040518060400160405280600581526020017f466f63757300000000000000000000000000000000000000000000000000000081525081526020016040518060400160405280600781526020017f5265666c6563740000000000000000000000000000000000000000000000000081525081526020016040518060400160405280600781526020017f4a6f75726e616c00000000000000000000000000000000000000000000000000815250815250600d90600f62000567929190620007c9565b503480156200057557600080fd5b506040518060400160405280600981526020017f416374696f6e4e465400000000000000000000000000000000000000000000008152506040518060400160405280600681526020017f414354494f4e00000000000000000000000000000000000000000000000000008152508160009081620005f3919062000b30565b50806001908162000605919062000b30565b505050620006376040518060800160405280604881526020016200484d604891396200063d60201b620010ac1760201c565b62000cca565b620006dd8160405160240162000654919062000ca6565b6040516020818303038152906040527f41304fac000000000000000000000000000000000000000000000000000000007bffffffffffffffffffffffffffffffffffffffffffffffffffffffff19166020820180517bffffffffffffffffffffffffffffffffffffffffffffffffffffffff8381831617835250505050620006e060201b60201c565b50565b60008151905060006a636f6e736f6c652e6c6f679050602083016000808483855afa5050505050565b82805482825590600052602060002090810192821562000756579160200282015b828111156200075557825182908162000744919062000b30565b50916020019190600101906200072a565b5b50905062000765919062000829565b5090565b828054828255906000526020600020908101928215620007b6579160200282015b82811115620007b5578251829081620007a4919062000b30565b50916020019190600101906200078a565b5b509050620007c5919062000829565b5090565b82805482825590600052602060002090810192821562000816579160200282015b828111156200081557825182908162000804919062000b30565b5091602001919060010190620007ea565b5b50905062000825919062000829565b5090565b5b808211156200084d576000818162000843919062000851565b506001016200082a565b5090565b5080546200085f906200091f565b6000825580601f1062000873575062000894565b601f01602090049060005260206000209081019062000893919062000897565b5b50565b5b80821115620008b257600081600090555060010162000898565b5090565b600081519050919050565b7f4e487b7100000000000000000000000000000000000000000000000000000000600052604160045260246000fd5b7f4e487b7100000000000000000000000000000000000000000000000000000000600052602260045260246000fd5b600060028204905060018216806200093857607f821691505b6020821081036200094e576200094d620008f0565b5b50919050565b60008190508160005260206000209050919050565b60006020601f8301049050919050565b600082821b905092915050565b600060088302620009b87fffffffffffffffffffffffffffffffffffffffffffffffffffffffffffffffff8262000979565b620009c4868362000979565b95508019841693508086168417925050509392505050565b6000819050919050565b6000819050919050565b600062000a1162000a0b62000a0584620009dc565b620009e6565b620009dc565b9050919050565b6000819050919050565b62000a2d83620009f0565b62000a4562000a3c8262000a18565b84845462000986565b825550505050565b600090565b62000a5c62000a4d565b62000a6981848462000a22565b505050565b5b8181101562000a915762000a8560008262000a52565b60018101905062000a6f565b5050565b601f82111562000ae05762000aaa8162000954565b62000ab58462000969565b8101602085101562000ac5578190505b62000add62000ad48562000969565b83018262000a6e565b50505b505050565b600082821c905092915050565b600062000b056000198460080262000ae5565b1980831691505092915050565b600062000b20838362000af2565b9150826002028217905092915050565b62000b3b82620008b6565b67ffffffffffffffff81111562000b575762000b56620008c1565b5b62000b6382546200091f565b62000b7082828562000a95565b600060209050601f83116001811462000ba8576000841562000b93578287015190505b62000b9f858262000b12565b86555062000c0f565b601f19841662000bb88662000954565b60005b8281101562000be25784890151825560018201915060208501945060208101905062000bbb565b8683101562000c02578489015162000bfe601f89168262000af2565b8355505b6001600288020188555050505b505050505050565b600082825260208201905092915050565b60005b8381101562000c4857808201518184015260208101905062000c2b565b60008484015250505050565b6000601f19601f8301169050919050565b600062000c7282620008b6565b62000c7e818562000c17565b935062000c9081856020860162000c28565b62000c9b8162000c54565b840191505092915050565b6000602082019050818103600083015262000cc2818462000c65565b905092915050565b613b738062000cda6000396000f3fe608060405234801561001057600080fd5b50600436106101165760003560e01c806370a08231116100a2578063b88d4fde11610071578063b88d4fde14610317578063c575757a14610333578063c87b56dd14610363578063de9d132f14610393578063e985e9c51461039d57610116565b806370a082311461027d57806395d89b41146102ad578063a22cb465146102cb578063b187301f146102e757610116565b806323b872dd116100e957806323b872dd146101b55780632de38d68146101d157806342842e0e14610201578063514dc8c61461021d5780636352211e1461024d57610116565b806301ffc9a71461011b57806306fdde031461014b578063081812fc14610169578063095ea7b314610199575b600080fd5b6101356004803603810190610130919061240b565b6103cd565b6040516101429190612453565b60405180910390f35b6101536104af565b60405161016091906124fe565b60405180910390f35b610183600480360381019061017e9190612556565b610541565b60405161019091906125c4565b60405180910390f35b6101b360048036038101906101ae919061260b565b610587565b005b6101cf60048036038101906101ca919061264b565b61069e565b005b6101eb60048036038101906101e69190612556565b6106fe565b6040516101f891906124fe565b60405180910390f35b61021b6004803603810190610216919061264b565b6107f6565b005b61023760048036038101906102329190612556565b610816565b60405161024491906124fe565b60405180910390f35b61026760048036038101906102629190612556565b61090e565b60405161027491906125c4565b60405180910390f35b6102976004803603810190610292919061269e565b610994565b6040516102a491906126da565b60405180910390f35b6102b5610a4b565b6040516102c291906124fe565b60405180910390f35b6102e560048036038101906102e09190612721565b610add565b005b61030160048036038101906102fc9190612556565b610af3565b60405161030e91906124fe565b60405180910390f35b610331600480360381019061032c9190612896565b610beb565b005b61034d60048036038101906103489190612556565b610c4d565b60405161035a91906124fe565b60405180910390f35b61037d60048036038101906103789190612556565b610d45565b60405161038a91906124fe565b60405180910390f35b61039b610e57565b005b6103b760048036038101906103b29190612919565b611018565b6040516103c49190612453565b60405180910390f35b60007f80ac58cd000000000000000000000000000000000000000000000000000000007bffffffffffffffffffffffffffffffffffffffffffffffffffffffff1916827bffffffffffffffffffffffffffffffffffffffffffffffffffffffff1916148061049857507f5b5e139f000000000000000000000000000000000000000000000000000000007bffffffffffffffffffffffffffffffffffffffffffffffffffffffff1916827bffffffffffffffffffffffffffffffffffffffffffffffffffffffff1916145b806104a857506104a782611145565b5b9050919050565b6060600080546104be90612988565b80601f01602080910402602001604051908101604052809291908181526020018280546104ea90612988565b80156105375780601f1061050c57610100808354040283529160200191610537565b820191906000526020600020905b81548152906001019060200180831161051a57829003601f168201915b5050505050905090565b600061054c826111af565b6004600083815260200190815260200160002060009054906101000a900473ffffffffffffffffffffffffffffffffffffffff169050919050565b60006105928261090e565b90508073ffffffffffffffffffffffffffffffffffffffff168373ffffffffffffffffffffffffffffffffffffffff1603610602576040517f08c379a00000000000000000000000000000000000000000000000000000000081526004016105f990612a2b565b60405180910390fd5b8073ffffffffffffffffffffffffffffffffffffffff166106216111fa565b73ffffffffffffffffffffffffffffffffffffffff161480610650575061064f8161064a6111fa565b611018565b5b61068f576040517f08c379a000000000000000000000000000000000000000000000000000000000815260040161068690612abd565b60405180910390fd5b6106998383611202565b505050565b6106af6106a96111fa565b826112bb565b6106ee576040517f08c379a00000000000000000000000000000000000000000000000000000000081526004016106e590612b4f565b60405180910390fd5b6106f9838383611350565b505050565b6060600061073261070e84611649565b60405160200161071e9190612bf7565b604051602081830303815290604052611717565b9050600b80549050816107459190612c48565b9050600b818154811061075b5761075a612c79565b5b90600052602060002001805461077090612988565b80601f016020809104026020016040519081016040528092919081815260200182805461079c90612988565b80156107e95780601f106107be576101008083540402835291602001916107e9565b820191906000526020600020905b8154815290600101906020018083116107cc57829003601f168201915b5050505050915050919050565b61081183838360405180602001604052806000815250610beb565b505050565b6060600061084a61082684611649565b6040516020016108369190612cf4565b604051602081830303815290604052611717565b9050600a805490508161085d9190612c48565b9050600a818154811061087357610872612c79565b5b90600052602060002001805461088890612988565b80601f01602080910402602001604051908101604052809291908181526020018280546108b490612988565b80156109015780601f106108d657610100808354040283529160200191610901565b820191906000526020600020905b8154815290600101906020018083116108e457829003601f168201915b5050505050915050919050565b60008061091a8361174a565b9050600073ffffffffffffffffffffffffffffffffffffffff168173ffffffffffffffffffffffffffffffffffffffff160361098b576040517f08c379a000000000000000000000000000000000000000000000000000000000815260040161098290612d62565b60405180910390fd5b80915050919050565b60008073ffffffffffffffffffffffffffffffffffffffff168273ffffffffffffffffffffffffffffffffffffffff1603610a04576040517f08c379a00000000000000000000000000000000000000000000000000000000081526004016109fb90612df4565b60405180910390fd5b600360008373ffffffffffffffffffffffffffffffffffffffff1673ffffffffffffffffffffffffffffffffffffffff168152602001908152602001600020549050919050565b606060018054610a5a90612988565b80601f0160208091040260200160405190810160405280929190818152602001828054610a8690612988565b8015610ad35780601f10610aa857610100808354040283529160200191610ad3565b820191906000526020600020905b815481529060010190602001808311610ab657829003601f168201915b5050505050905090565b610aef610ae86111fa565b8383611787565b5050565b60606000610b27610b0384611649565b604051602001610b139190612e60565b604051602081830303815290604052611717565b9050600c8054905081610b3a9190612c48565b9050600c8181548110610b5057610b4f612c79565b5b906000526020600020018054610b6590612988565b80601f0160208091040260200160405190810160405280929190818152602001828054610b9190612988565b8015610bde5780601f10610bb357610100808354040283529160200191610bde565b820191906000526020600020905b815481529060010190602001808311610bc157829003601f168201915b5050505050915050919050565b610bfc610bf66111fa565b836112bb565b610c3b576040517f08c379a0000000000000000000000000000000000000000000000000000000008152600401610c3290612b4f565b60405180910390fd5b610c47848484846118f3565b50505050565b60606000610c81610c5d84611649565b604051602001610c6d9190612ece565b604051602081830303815290604052611717565b9050600d8054905081610c949190612c48565b9050600d8181548110610caa57610ca9612c79565b5b906000526020600020018054610cbf90612988565b80601f0160208091040260200160405190810160405280929190818152602001828054610ceb90612988565b8015610d385780601f10610d0d57610100808354040283529160200191610d38565b820191906000526020600020905b815481529060010190602001808311610d1b57829003601f168201915b5050505050915050919050565b6060610d50826111af565b6000600660008481526020019081526020016000208054610d7090612988565b80601f0160208091040260200160405190810160405280929190818152602001828054610d9c90612988565b8015610de95780601f10610dbe57610100808354040283529160200191610de9565b820191906000526020600020905b815481529060010190602001808311610dcc57829003601f168201915b505050505090506000610dfa61194f565b90506000815103610e0f578192505050610e52565b600082511115610e44578082604051602001610e2c929190612ef0565b60405160208183030381529060405292505050610e52565b610e4d84611966565b925050505b919050565b6000610e6360076119ce565b90506000610e7082610816565b90506000610e7d836106fe565b90506000610e8a84610af3565b90506000610e9785610c4d565b90506000838383604051602001610eb093929190612f14565b60405160208183030381529060405290506000600886600984604051602001610edc9493929190613029565b60405160208183030381529060405290506000610f2183610efc846119dc565b604051602001610f0d9291906131ee565b6040516020818303038152906040526119dc565b9050600081604051602001610f36919061327f565b6040516020818303038152906040529050610f856040518060400160405280601581526020017f0a2d2d2d2d2d2d2d2d2d2d2d2d2d2d2d2d2d2d2d2d00000000000000000000008152506110ac565b610f8e816110ac565b610fcc6040518060400160405280601581526020017f2d2d2d2d2d2d2d2d2d2d2d2d2d2d2d2d2d2d2d2d0a00000000000000000000008152506110ac565b610fd6338a611b54565b610fe08982611b72565b610fea6007611bdf565b61100d604051806060016040528060258152602001613ad9602591398a33611bf5565b505050505050505050565b6000600560008473ffffffffffffffffffffffffffffffffffffffff1673ffffffffffffffffffffffffffffffffffffffff16815260200190815260200160002060008373ffffffffffffffffffffffffffffffffffffffff1673ffffffffffffffffffffffffffffffffffffffff16815260200190815260200160002060009054906101000a900460ff16905092915050565b611142816040516024016110c091906124fe565b6040516020818303038152906040527f41304fac000000000000000000000000000000000000000000000000000000007bffffffffffffffffffffffffffffffffffffffffffffffffffffffff19166020820180517bffffffffffffffffffffffffffffffffffffffffffffffffffffffff8381831617835250505050611c94565b50565b60007f01ffc9a7000000000000000000000000000000000000000000000000000000007bffffffffffffffffffffffffffffffffffffffffffffffffffffffff1916827bffffffffffffffffffffffffffffffffffffffffffffffffffffffff1916149050919050565b6111b881611cbd565b6111f7576040517f08c379a00000000000000000000000000000000000000000000000000000000081526004016111ee90612d62565b60405180910390fd5b50565b600033905090565b816004600083815260200190815260200160002060006101000a81548173ffffffffffffffffffffffffffffffffffffffff021916908373ffffffffffffffffffffffffffffffffffffffff160217905550808273ffffffffffffffffffffffffffffffffffffffff166112758361090e565b73ffffffffffffffffffffffffffffffffffffffff167f8c5be1e5ebec7d5bd14f71427d1e84f3dd0314c0f7b2291e5b200ac8c7c3b92560405160405180910390a45050565b6000806112c78361090e565b90508073ffffffffffffffffffffffffffffffffffffffff168473ffffffffffffffffffffffffffffffffffffffff16148061130957506113088185611018565b5b8061134757508373ffffffffffffffffffffffffffffffffffffffff1661132f84610541565b73ffffffffffffffffffffffffffffffffffffffff16145b91505092915050565b8273ffffffffffffffffffffffffffffffffffffffff166113708261090e565b73ffffffffffffffffffffffffffffffffffffffff16146113c6576040517f08c379a00000000000000000000000000000000000000000000000000000000081526004016113bd90613313565b60405180910390fd5b600073ffffffffffffffffffffffffffffffffffffffff168273ffffffffffffffffffffffffffffffffffffffff1603611435576040517f08c379a000000000000000000000000000000000000000000000000000000000815260040161142c906133a5565b60405180910390fd5b6114428383836001611cfe565b8273ffffffffffffffffffffffffffffffffffffffff166114628261090e565b73ffffffffffffffffffffffffffffffffffffffff16146114b8576040517f08c379a00000000000000000000000000000000000000000000000000000000081526004016114af90613313565b60405180910390fd5b6004600082815260200190815260200160002060006101000a81549073ffffffffffffffffffffffffffffffffffffffff02191690556001600360008573ffffffffffffffffffffffffffffffffffffffff1673ffffffffffffffffffffffffffffffffffffffff168152602001908152602001600020600082825403925050819055506001600360008473ffffffffffffffffffffffffffffffffffffffff1673ffffffffffffffffffffffffffffffffffffffff16815260200190815260200160002060008282540192505081905550816002600083815260200190815260200160002060006101000a81548173ffffffffffffffffffffffffffffffffffffffff021916908373ffffffffffffffffffffffffffffffffffffffff160217905550808273ffffffffffffffffffffffffffffffffffffffff168473ffffffffffffffffffffffffffffffffffffffff167fddf252ad1be2c89b69c2b068fc378daa952ba7f163c4a11628f55a4df523b3ef60405160405180910390a46116448383836001611e24565b505050565b60606000600161165884611e2a565b01905060008167ffffffffffffffff8111156116775761167661276b565b5b6040519080825280601f01601f1916602001820160405280156116a95781602001600182028036833780820191505090505b509050600082602001820190505b60011561170c578080600190039150507f3031323334353637383961626364656600000000000000000000000000000000600a86061a8153600a8581611700576116ff612c19565b5b049450600085036116b7575b819350505050919050565b60008160405160200161172a91906133c5565b6040516020818303038152906040528051906020012060001c9050919050565b60006002600083815260200190815260200160002060009054906101000a900473ffffffffffffffffffffffffffffffffffffffff169050919050565b8173ffffffffffffffffffffffffffffffffffffffff168373ffffffffffffffffffffffffffffffffffffffff16036117f5576040517f08c379a00000000000000000000000000000000000000000000000000000000081526004016117ec90613428565b60405180910390fd5b80600560008573ffffffffffffffffffffffffffffffffffffffff1673ffffffffffffffffffffffffffffffffffffffff16815260200190815260200160002060008473ffffffffffffffffffffffffffffffffffffffff1673ffffffffffffffffffffffffffffffffffffffff16815260200190815260200160002060006101000a81548160ff0219169083151502179055508173ffffffffffffffffffffffffffffffffffffffff168373ffffffffffffffffffffffffffffffffffffffff167f17307eab39ab6107e8899845ad3d59bd9653f200f220920489ca2b5937696c31836040516118e69190612453565b60405180910390a3505050565b6118fe848484611350565b61190a84848484611f7d565b611949576040517f08c379a0000000000000000000000000000000000000000000000000000000008152600401611940906134ba565b60405180910390fd5b50505050565b606060405180602001604052806000815250905090565b6060611971826111af565b600061197b61194f565b9050600081511161199b57604051806020016040528060008152506119c6565b806119a584611649565b6040516020016119b6929190612ef0565b6040516020818303038152906040525b915050919050565b600081600001549050919050565b606060008251036119fe57604051806020016040528060008152509050611b4f565b6000604051806060016040528060408152602001613afe6040913990506000600360028551611a2d9190613509565b611a37919061353d565b6004611a43919061356e565b90506000602082611a549190613509565b67ffffffffffffffff811115611a6d57611a6c61276b565b5b6040519080825280601f01601f191660200182016040528015611a9f5781602001600182028036833780820191505090505b509050818152600183018586518101602084015b81831015611b0e576003830192508251603f8160121c168501518253600182019150603f81600c1c168501518253600182019150603f8160061c168501518253600182019150603f8116850151825360018201915050611ab3565b600389510660018114611b285760028114611b3857611b43565b613d3d60f01b6002830352611b43565b603d60f81b60018303525b50505050508093505050505b919050565b611b6e828260405180602001604052806000815250612104565b5050565b611b7b82611cbd565b611bba576040517f08c379a0000000000000000000000000000000000000000000000000000000008152600401611bb190613622565b60405180910390fd5b80600660008481526020019081526020016000209081611bda91906137d9565b505050565b6001816000016000828254019250508190555050565b611c8f838383604051602401611c0d939291906138ab565b6040516020818303038152906040527f1c7ec448000000000000000000000000000000000000000000000000000000007bffffffffffffffffffffffffffffffffffffffffffffffffffffffff19166020820180517bffffffffffffffffffffffffffffffffffffffffffffffffffffffff8381831617835250505050611c94565b505050565b60008151905060006a636f6e736f6c652e6c6f679050602083016000808483855afa5050505050565b60008073ffffffffffffffffffffffffffffffffffffffff16611cdf8361174a565b73ffffffffffffffffffffffffffffffffffffffff1614159050919050565b6001811115611e1e57600073ffffffffffffffffffffffffffffffffffffffff168473ffffffffffffffffffffffffffffffffffffffff1614611d925780600360008673ffffffffffffffffffffffffffffffffffffffff1673ffffffffffffffffffffffffffffffffffffffff1681526020019081526020016000206000828254611d8a91906138e9565b925050819055505b600073ffffffffffffffffffffffffffffffffffffffff168373ffffffffffffffffffffffffffffffffffffffff1614611e1d5780600360008573ffffffffffffffffffffffffffffffffffffffff1673ffffffffffffffffffffffffffffffffffffffff1681526020019081526020016000206000828254611e159190613509565b925050819055505b5b50505050565b50505050565b600080600090507a184f03e93ff9f4daa797ed6e38ed64bf6a1f0100000000000000008310611e88577a184f03e93ff9f4daa797ed6e38ed64bf6a1f0100000000000000008381611e7e57611e7d612c19565b5b0492506040810190505b6d04ee2d6d415b85acef81000000008310611ec5576d04ee2d6d415b85acef81000000008381611ebb57611eba612c19565b5b0492506020810190505b662386f26fc100008310611ef457662386f26fc100008381611eea57611ee9612c19565b5b0492506010810190505b6305f5e1008310611f1d576305f5e1008381611f1357611f12612c19565b5b0492506008810190505b6127108310611f42576127108381611f3857611f37612c19565b5b0492506004810190505b60648310611f655760648381611f5b57611f5a612c19565b5b0492506002810190505b600a8310611f74576001810190505b80915050919050565b6000611f9e8473ffffffffffffffffffffffffffffffffffffffff1661215f565b156120f7578373ffffffffffffffffffffffffffffffffffffffff1663150b7a02611fc76111fa565b8786866040518563ffffffff1660e01b8152600401611fe99493929190613972565b6020604051808303816000875af192505050801561202557506040513d601f19601f8201168201806040525081019061202291906139d3565b60015b6120a7573d8060008114612055576040519150601f19603f3d011682016040523d82523d6000602084013e61205a565b606091505b50600081510361209f576040517f08c379a0000000000000000000000000000000000000000000000000000000008152600401612096906134ba565b60405180910390fd5b805181602001fd5b63150b7a0260e01b7bffffffffffffffffffffffffffffffffffffffffffffffffffffffff1916817bffffffffffffffffffffffffffffffffffffffffffffffffffffffff1916149150506120fc565b600190505b949350505050565b61210e8383612182565b61211b6000848484611f7d565b61215a576040517f08c379a0000000000000000000000000000000000000000000000000000000008152600401612151906134ba565b60405180910390fd5b505050565b6000808273ffffffffffffffffffffffffffffffffffffffff163b119050919050565b600073ffffffffffffffffffffffffffffffffffffffff168273ffffffffffffffffffffffffffffffffffffffff16036121f1576040517f08c379a00000000000000000000000000000000000000000000000000000000081526004016121e890613a4c565b60405180910390fd5b6121fa81611cbd565b1561223a576040517f08c379a000000000000000000000000000000000000000000000000000000000815260040161223190613ab8565b60405180910390fd5b612248600083836001611cfe565b61225181611cbd565b15612291576040517f08c379a000000000000000000000000000000000000000000000000000000000815260040161228890613ab8565b60405180910390fd5b6001600360008473ffffffffffffffffffffffffffffffffffffffff1673ffffffffffffffffffffffffffffffffffffffff16815260200190815260200160002060008282540192505081905550816002600083815260200190815260200160002060006101000a81548173ffffffffffffffffffffffffffffffffffffffff021916908373ffffffffffffffffffffffffffffffffffffffff160217905550808273ffffffffffffffffffffffffffffffffffffffff16600073ffffffffffffffffffffffffffffffffffffffff167fddf252ad1be2c89b69c2b068fc378daa952ba7f163c4a11628f55a4df523b3ef60405160405180910390a461239b600083836001611e24565b5050565b6000604051905090565b600080fd5b600080fd5b60007fffffffff0000000000000000000000000000000000000000000000000000000082169050919050565b6123e8816123b3565b81146123f357600080fd5b50565b600081359050612405816123df565b92915050565b600060208284031215612421576124206123a9565b5b600061242f848285016123f6565b91505092915050565b60008115159050919050565b61244d81612438565b82525050565b60006020820190506124686000830184612444565b92915050565b600081519050919050565b600082825260208201905092915050565b60005b838110156124a857808201518184015260208101905061248d565b60008484015250505050565b6000601f19601f8301169050919050565b60006124d08261246e565b6124da8185612479565b93506124ea81856020860161248a565b6124f3816124b4565b840191505092915050565b6000602082019050818103600083015261251881846124c5565b905092915050565b6000819050919050565b61253381612520565b811461253e57600080fd5b50565b6000813590506125508161252a565b92915050565b60006020828403121561256c5761256b6123a9565b5b600061257a84828501612541565b91505092915050565b600073ffffffffffffffffffffffffffffffffffffffff82169050919050565b60006125ae82612583565b9050919050565b6125be816125a3565b82525050565b60006020820190506125d960008301846125b5565b92915050565b6125e8816125a3565b81146125f357600080fd5b50565b600081359050612605816125df565b92915050565b60008060408385031215612622576126216123a9565b5b6000612630858286016125f6565b925050602061264185828601612541565b9150509250929050565b600080600060608486031215612664576126636123a9565b5b6000612672868287016125f6565b9350506020612683868287016125f6565b925050604061269486828701612541565b9150509250925092565b6000602082840312156126b4576126b36123a9565b5b60006126c2848285016125f6565b91505092915050565b6126d481612520565b82525050565b60006020820190506126ef60008301846126cb565b92915050565b6126fe81612438565b811461270957600080fd5b50565b60008135905061271b816126f5565b92915050565b60008060408385031215612738576127376123a9565b5b6000612746858286016125f6565b92505060206127578582860161270c565b9150509250929050565b600080fd5b600080fd5b7f4e487b7100000000000000000000000000000000000000000000000000000000600052604160045260246000fd5b6127a3826124b4565b810181811067ffffffffffffffff821117156127c2576127c161276b565b5b80604052505050565b60006127d561239f565b90506127e1828261279a565b919050565b600067ffffffffffffffff8211156128015761280061276b565b5b61280a826124b4565b9050602081019050919050565b82818337600083830152505050565b6000612839612834846127e6565b6127cb565b90508281526020810184848401111561285557612854612766565b5b612860848285612817565b509392505050565b600082601f83011261287d5761287c612761565b5b813561288d848260208601612826565b91505092915050565b600080600080608085870312156128b0576128af6123a9565b5b60006128be878288016125f6565b94505060206128cf878288016125f6565b93505060406128e087828801612541565b925050606085013567ffffffffffffffff811115612901576129006123ae565b5b61290d87828801612868565b91505092959194509250565b600080604083850312156129305761292f6123a9565b5b600061293e858286016125f6565b925050602061294f858286016125f6565b9150509250929050565b7f4e487b7100000000000000000000000000000000000000000000000000000000600052602260045260246000fd5b600060028204905060018216806129a057607f821691505b6020821081036129b3576129b2612959565b5b50919050565b7f4552433732313a20617070726f76616c20746f2063757272656e74206f776e6560008201527f7200000000000000000000000000000000000000000000000000000000000000602082015250565b6000612a15602183612479565b9150612a20826129b9565b604082019050919050565b60006020820190508181036000830152612a4481612a08565b9050919050565b7f4552433732313a20617070726f76652063616c6c6572206973206e6f7420746f60008201527f6b656e206f776e6572206f7220617070726f76656420666f7220616c6c000000602082015250565b6000612aa7603d83612479565b9150612ab282612a4b565b604082019050919050565b60006020820190508181036000830152612ad681612a9a565b9050919050565b7f4552433732313a2063616c6c6572206973206e6f7420746f6b656e206f776e6560008201527f72206f7220617070726f76656400000000000000000000000000000000000000602082015250565b6000612b39602d83612479565b9150612b4482612add565b604082019050919050565b60006020820190508181036000830152612b6881612b2c565b9050919050565b600081905092915050565b7f46495253545f574f524400000000000000000000000000000000000000000000600082015250565b6000612bb0600a83612b6f565b9150612bbb82612b7a565b600a82019050919050565b6000612bd18261246e565b612bdb8185612b6f565b9350612beb81856020860161248a565b80840191505092915050565b6000612c0282612ba3565b9150612c0e8284612bc6565b915081905092915050565b7f4e487b7100000000000000000000000000000000000000000000000000000000600052601260045260246000fd5b6000612c5382612520565b9150612c5e83612520565b925082612c6e57612c6d612c19565b5b828206905092915050565b7f4e487b7100000000000000000000000000000000000000000000000000000000600052603260045260246000fd5b7f434f4c4f52000000000000000000000000000000000000000000000000000000600082015250565b6000612cde600583612b6f565b9150612ce982612ca8565b600582019050919050565b6000612cff82612cd1565b9150612d0b8284612bc6565b915081905092915050565b7f4552433732313a20696e76616c696420746f6b656e2049440000000000000000600082015250565b6000612d4c601883612479565b9150612d5782612d16565b602082019050919050565b60006020820190508181036000830152612d7b81612d3f565b9050919050565b7f4552433732313a2061646472657373207a65726f206973206e6f74206120766160008201527f6c6964206f776e65720000000000000000000000000000000000000000000000602082015250565b6000612dde602983612479565b9150612de982612d82565b604082019050919050565b60006020820190508181036000830152612e0d81612dd1565b9050919050565b7f5345434f4e445f574f5244000000000000000000000000000000000000000000600082015250565b6000612e4a600b83612b6f565b9150612e5582612e14565b600b82019050919050565b6000612e6b82612e3d565b9150612e778284612bc6565b915081905092915050565b7f54484952445f574f524400000000000000000000000000000000000000000000600082015250565b6000612eb8600a83612b6f565b9150612ec382612e82565b600a82019050919050565b6000612ed982612eab565b9150612ee58284612bc6565b915081905092915050565b6000612efc8285612bc6565b9150612f088284612bc6565b91508190509392505050565b6000612f208286612bc6565b9150612f2c8285612bc6565b9150612f388284612bc6565b9150819050949350505050565b60008190508160005260206000209050919050565b60008154612f6781612988565b612f718186612b6f565b94506001821660008114612f8c5760018114612fa157612fd4565b60ff1983168652811515820286019350612fd4565b612faa85612f45565b60005b83811015612fcc57815481890152600182019150602081019050612fad565b838801955050505b50505092915050565b7f3c2f746578743e3c2f7376673e00000000000000000000000000000000000000600082015250565b6000613013600d83612b6f565b915061301e82612fdd565b600d82019050919050565b60006130358287612f5a565b91506130418286612bc6565b915061304d8285612f5a565b91506130598284612bc6565b915061306482613006565b915081905095945050505050565b7f7b226e616d65223a202200000000000000000000000000000000000000000000600082015250565b60006130a8600a83612b6f565b91506130b382613072565b600a82019050919050565b7f222c20226465736372697074696f6e223a202261637420746f6461792c20646f60008201527f206e6f74207761697420746d72772120736861726520796f757220726573756c60208201527f7473206f6e207477697474657220772f204076657263695f657468222c20226960408201527f6d616765223a2022646174613a696d6167652f7376672b786d6c3b626173653660608201527f342c000000000000000000000000000000000000000000000000000000000000608082015250565b600061318c608283612b6f565b9150613197826130be565b608282019050919050565b7f227d000000000000000000000000000000000000000000000000000000000000600082015250565b60006131d8600283612b6f565b91506131e3826131a2565b600282019050919050565b60006131f98261309b565b91506132058285612bc6565b91506132108261317f565b915061321c8284612bc6565b9150613227826131cb565b91508190509392505050565b7f646174613a6170706c69636174696f6e2f6a736f6e3b6261736536342c000000600082015250565b6000613269601d83612b6f565b915061327482613233565b601d82019050919050565b600061328a8261325c565b91506132968284612bc6565b915081905092915050565b7f4552433732313a207472616e736665722066726f6d20696e636f72726563742060008201527f6f776e6572000000000000000000000000000000000000000000000000000000602082015250565b60006132fd602583612479565b9150613308826132a1565b604082019050919050565b6000602082019050818103600083015261332c816132f0565b9050919050565b7f4552433732313a207472616e7366657220746f20746865207a65726f2061646460008201527f7265737300000000000000000000000000000000000000000000000000000000602082015250565b600061338f602483612479565b915061339a82613333565b604082019050919050565b600060208201905081810360008301526133be81613382565b9050919050565b60006133d18284612bc6565b915081905092915050565b7f4552433732313a20617070726f766520746f2063616c6c657200000000000000600082015250565b6000613412601983612479565b915061341d826133dc565b602082019050919050565b6000602082019050818103600083015261344181613405565b9050919050565b7f4552433732313a207472616e7366657220746f206e6f6e20455243373231526560008201527f63656976657220696d706c656d656e7465720000000000000000000000000000602082015250565b60006134a4603283612479565b91506134af82613448565b604082019050919050565b600060208201905081810360008301526134d381613497565b9050919050565b7f4e487b7100000000000000000000000000000000000000000000000000000000600052601160045260246000fd5b600061351482612520565b915061351f83612520565b9250828201905080821115613537576135366134da565b5b92915050565b600061354882612520565b915061355383612520565b92508261356357613562612c19565b5b828204905092915050565b600061357982612520565b915061358483612520565b925082820261359281612520565b915082820484148315176135a9576135a86134da565b5b5092915050565b7f45524337323155524953746f726167653a2055524920736574206f66206e6f6e60008201527f6578697374656e7420746f6b656e000000000000000000000000000000000000602082015250565b600061360c602e83612479565b9150613617826135b0565b604082019050919050565b6000602082019050818103600083015261363b816135ff565b9050919050565b60006020601f8301049050919050565b600082821b905092915050565b60006008830261368f7fffffffffffffffffffffffffffffffffffffffffffffffffffffffffffffffff82613652565b6136998683613652565b95508019841693508086168417925050509392505050565b6000819050919050565b60006136d66136d16136cc84612520565b6136b1565b612520565b9050919050565b6000819050919050565b6136f0836136bb565b6137046136fc826136dd565b84845461365f565b825550505050565b600090565b61371961370c565b6137248184846136e7565b505050565b5b818110156137485761373d600082613711565b60018101905061372a565b5050565b601f82111561378d5761375e81612f45565b61376784613642565b81016020851015613776578190505b61378a61378285613642565b830182613729565b50505b505050565b600082821c905092915050565b60006137b060001984600802613792565b1980831691505092915050565b60006137c9838361379f565b9150826002028217905092915050565b6137e28261246e565b67ffffffffffffffff8111156137fb576137fa61276b565b5b6138058254612988565b61381082828561374c565b600060209050601f8311600181146138435760008415613831578287015190505b61383b85826137bd565b8655506138a3565b601f19841661385186612f45565b60005b8281101561387957848901518255600182019150602085019450602081019050613854565b868310156138965784890151613892601f89168261379f565b8355505b6001600288020188555050505b505050505050565b600060608201905081810360008301526138c581866124c5565b90506138d460208301856126cb565b6138e160408301846125b5565b949350505050565b60006138f482612520565b91506138ff83612520565b9250828203905081811115613917576139166134da565b5b92915050565b600081519050919050565b600082825260208201905092915050565b60006139448261391d565b61394e8185613928565b935061395e81856020860161248a565b613967816124b4565b840191505092915050565b600060808201905061398760008301876125b5565b61399460208301866125b5565b6139a160408301856126cb565b81810360608301526139b38184613939565b905095945050505050565b6000815190506139cd816123df565b92915050565b6000602082840312156139e9576139e86123a9565b5b60006139f7848285016139be565b91505092915050565b7f4552433732313a206d696e7420746f20746865207a65726f2061646472657373600082015250565b6000613a36602083612479565b9150613a4182613a00565b602082019050919050565b60006020820190508181036000830152613a6581613a29565b9050919050565b7f4552433732313a20746f6b656e20616c7265616479206d696e74656400000000600082015250565b6000613aa2601c83612479565b9150613aad82613a6c565b602082019050919050565b60006020820190508181036000830152613ad181613a95565b905091905056fe416e204e465420772f20494420257320686173206265656e206d696e74656420746f2025734142434445464748494a4b4c4d4e4f505152535455565758595a6162636465666768696a6b6c6d6e6f707172737475767778797a303132333435363738392b2fa2646970667358221220e5c41c3c156192b20c0cd3fd823792a66431a9ed7583554aa733bad05cceb43d64736f6c6343000811003361637420746f6461792c20646f206e6f74207761697420746d72772120736861726520796f757220726573756c7473206f6e207477697474657220772f204076657263695f6574683c73766720786d6c6e733d27687474703a2f2f7777772e77332e6f72672f323030302f73766727207072657365727665417370656374526174696f3d27784d696e594d696e206d656574272076696577426f783d273020302033353020313030273e3c7374796c653e2e62617365207b2066696c6c3a20233b20666f6e742d66616d696c793a202661706f733b50726573732053746172742032502661706f733b3b20666f6e742d73697a653a20313470783b207d3c2f7374796c653e3c726563742077696474683d273130302527206865696768743d2731303025272066696c6c3d272332363236323627202f3e3c7465787420783d273530252720793d273530252720636c6173733d27626173652720646f6d696e616e742d626173656c696e653d276d6964646c652720746578742d616e63686f723d276d6964646c65273e",
    "linkReferences": {},
    "deployedLinkReferences": {}
}